{
  "address": "0x1Aacc2F212E26808399bB9bf06Ec35E91e3DAf18",
  "abi": [
    {
      "inputs": [],
      "stateMutability": "nonpayable",
      "type": "constructor"
    },
    {
      "anonymous": false,
      "inputs": [
        {
          "indexed": true,
          "internalType": "address",
          "name": "_helper",
          "type": "address"
        },
        {
          "indexed": false,
          "internalType": "address",
          "name": "_admin",
          "type": "address"
        }
      ],
      "name": "CreateHelper",
      "type": "event"
    },
    {
      "anonymous": false,
      "inputs": [
        {
          "indexed": true,
          "internalType": "address",
          "name": "_helper",
          "type": "address"
        },
        {
          "indexed": true,
          "internalType": "address",
          "name": "_admin",
          "type": "address"
        }
      ],
      "name": "EditHelperAdmin",
      "type": "event"
    },
    {
      "anonymous": false,
      "inputs": [
        {
          "indexed": true,
          "internalType": "address",
          "name": "previousOwner",
          "type": "address"
        },
        {
          "indexed": true,
          "internalType": "address",
          "name": "newOwner",
          "type": "address"
        }
      ],
      "name": "OwnershipTransferred",
      "type": "event"
    },
    {
      "inputs": [
        {
          "internalType": "address",
          "name": "_admin",
          "type": "address"
        }
      ],
      "name": "createHelper",
      "outputs": [],
      "stateMutability": "nonpayable",
      "type": "function"
    },
    {
      "inputs": [
        {
          "internalType": "address",
          "name": "_helper",
          "type": "address"
        },
        {
          "internalType": "address",
          "name": "_newAdmin",
          "type": "address"
        }
      ],
      "name": "editHelperAdmin",
      "outputs": [],
      "stateMutability": "nonpayable",
      "type": "function"
    },
    {
      "inputs": [
        {
          "internalType": "address",
          "name": "_helper",
          "type": "address"
        }
      ],
      "name": "getHelperAdmin",
      "outputs": [
        {
          "internalType": "address",
          "name": "",
          "type": "address"
        }
      ],
      "stateMutability": "view",
      "type": "function"
    },
    {
      "inputs": [
        {
          "internalType": "address",
          "name": "_user",
          "type": "address"
        }
      ],
      "name": "isAdmin",
      "outputs": [
        {
          "internalType": "bool",
          "name": "",
          "type": "bool"
        }
      ],
      "stateMutability": "view",
      "type": "function"
    },
    {
      "inputs": [],
      "name": "owner",
      "outputs": [
        {
          "internalType": "address",
          "name": "",
          "type": "address"
        }
      ],
      "stateMutability": "view",
      "type": "function"
    },
    {
      "inputs": [],
      "name": "renounceOwnership",
      "outputs": [],
      "stateMutability": "nonpayable",
      "type": "function"
    },
    {
      "inputs": [
        {
          "internalType": "address",
          "name": "newOwner",
          "type": "address"
        }
      ],
      "name": "transferOwnership",
      "outputs": [],
      "stateMutability": "nonpayable",
      "type": "function"
    },
    {
      "inputs": [
        {
          "internalType": "address",
          "name": "_user",
          "type": "address"
        },
        {
          "internalType": "bool",
          "name": "flag",
          "type": "bool"
        }
      ],
      "name": "updateAdmin",
      "outputs": [],
      "stateMutability": "nonpayable",
      "type": "function"
    }
  ],
  "transactionHash": "0xd3687510790294022ca5867cb0ccb6d3111587281ca6497832baf999758a4b24",
  "args": [],
  "numDeployments": 1,
  "solcInputHash": "f5da2ee25f72a8c6f03328002e456bb5",
  "bytecode": "0x608060405234801561001057600080fd5b5061001a3361001f565b61006f565b600080546001600160a01b038381166001600160a01b0319831681178455604051919092169283917f8be0079c531659141344cd1fd0a4f28419497f9722a3daafe3b4186f6b6457e09190a35050565b615c598061007e6000396000f3fe608060405234801561001057600080fd5b50600436106100885760003560e01c8063715018a61161005b578063715018a6146100f05780638da5cb5b146100f8578063da3804cb1461011d578063f2fde38b1461014957600080fd5b806324d7806c1461008d57806332974bcb146100b5578063331b08b2146100ca578063670a6fd9146100dd575b600080fd5b6100a061009b3660046105e5565b61015c565b60405190151581526020015b60405180910390f35b6100c86100c3366004610607565b610196565b005b6100c86100d83660046105e5565b6102e5565b6100c86100eb36600461063a565b610452565b6100c8610485565b6000546001600160a01b03165b6040516001600160a01b0390911681526020016100ac565b61010561012b3660046105e5565b6001600160a01b039081166000908152600260205260409020541690565b6100c86101573660046105e5565b610499565b6001600160a01b03811660009081526001602052604081205460ff168061019057506000546001600160a01b038381169116145b92915050565b61019f3361015c565b6101dd5760405162461bcd60e51b81526004016101d49060208082526004908201526364656e7960e01b604082015260600190565b60405180910390fd5b6001600160a01b0381166102335760405162461bcd60e51b815260206004820152601f60248201527f68656c70657241646d696e206e6f74206265207a65726f20616464726573730060448201526064016101d4565b6001600160a01b038281166000908152600260205260409020541661028e5760405162461bcd60e51b81526020600482015260116024820152701a195b1c195c881b9bdd08195e1a595cdd607a1b60448201526064016101d4565b6001600160a01b0382811660008181526002602052604080822080546001600160a01b0319169486169485179055517f88c8bf3b755e7310e3a91d50ffa5d3834dc9adcffa6d861ed21179a1ff99af849190a35050565b6102ee3361015c565b6103235760405162461bcd60e51b81526004016101d49060208082526004908201526364656e7960e01b604082015260600190565b6001600160a01b0381166103795760405162461bcd60e51b815260206004820152601f60248201527f68656c70657241646d696e206e6f74206265207a65726f20616464726573730060448201526064016101d4565b6000604051610387906105bc565b604051809103906000f0801580156103a3573d6000803e3d6000fd5b5090506001600160a01b0381166103ec5760405162461bcd60e51b815260206004820152600d60248201526c18dc99585d194819985a5b1959609a1b60448201526064016101d4565b6001600160a01b0381811660008181526002602090815260409182902080546001600160a01b0319169487169485179055905192835290917ecde2ae797cbf94903e9cf4af0bb5f98b55e1373e52c2648bb1150645671c73910160405180910390a25050565b61045a610512565b6001600160a01b03919091166000908152600160205260409020805460ff1916911515919091179055565b61048d610512565b610497600061056c565b565b6104a1610512565b6001600160a01b0381166105065760405162461bcd60e51b815260206004820152602660248201527f4f776e61626c653a206e6577206f776e657220697320746865207a65726f206160448201526564647265737360d01b60648201526084016101d4565b61050f8161056c565b50565b6000546001600160a01b031633146104975760405162461bcd60e51b815260206004820181905260248201527f4f776e61626c653a2063616c6c6572206973206e6f7420746865206f776e657260448201526064016101d4565b600080546001600160a01b038381166001600160a01b0319831681178455604051919092169283917f8be0079c531659141344cd1fd0a4f28419497f9722a3daafe3b4186f6b6457e09190a35050565b6155ad8061067783390190565b80356001600160a01b03811681146105e057600080fd5b919050565b6000602082840312156105f757600080fd5b610600826105c9565b9392505050565b6000806040838503121561061a57600080fd5b610623836105c9565b9150610631602084016105c9565b90509250929050565b6000806040838503121561064d57600080fd5b610656836105c9565b91506020830135801515811461066b57600080fd5b80915050925092905056fe608060405234801561001057600080fd5b506001600055600280546001600160a01b0319163317905561557580620000386000396000f3fe60806040526004361061031e5760003560e01c806377c93662116101ab578063baf7ef0f116100f7578063e0a2ab5211610095578063ec2037931161006f578063ec203793146108e8578063f2918ef314610908578063f340c0d01461091d578063fbe3c3731461094b57600080fd5b8063e0a2ab5214610893578063e7f03766146108b3578063ebe82396146108c857600080fd5b8063c47f0027116100d1578063c47f002714610827578063c4f04f1b14610847578063c665a2791461085d578063dd4670641461087357600080fd5b8063baf7ef0f146107c7578063bf186703146107e7578063c14470c41461080757600080fd5b80639cafb2a111610164578063a441d0671161013e578063a441d06714610752578063a5ec94f914610772578063b2fb30cb14610787578063b6e1e49d146107a757600080fd5b80639cafb2a1146106f25780639dfb6081146107125780639f6829761461073257600080fd5b806377c936621461065f5780637b0716e41461066757806386d81a5a1461067d5780638f0176aa1461069d57806390b12b47146106b257806392f90fbf146106d257600080fd5b80633f199b401161026a5780636a911ccf11610223578063727d079c116101fd578063727d079c146105ea578063747daec51461060a578063760fbbb21461062a57806376afa04c1461063f57600080fd5b80636a911ccf146105955780636e198475146105aa5780637164ee88146105ca57600080fd5b80633f199b40146104d75780634282ee6d146104f75780634777394914610517578063481c6a751461053557806358b81ea8146105555780636198e3391461057557600080fd5b80631c5a9d9c116102d75780632b0a1f99116102b15780632b0a1f99146104495780632e1a7d4d1461047757806330ec70f5146104975780633863931f146104b757600080fd5b80631c5a9d9c146103f3578063216ff7da14610413578063298daf5b1461042957600080fd5b80630185a2321461032a5780630c8ff7e01461034c5780630fa750d2146103815780630fe7abab146103a157806310c504b5146103c157806312065fe0146103d657600080fd5b3661032557005b600080fd5b34801561033657600080fd5b5061034a610345366004614e26565b61096b565b005b34801561035857600080fd5b5061036c610367366004614b2a565b610aec565b60405190151581526020015b60405180910390f35b34801561038d57600080fd5b5061034a61039c366004614c1c565b610cf1565b3480156103ad57600080fd5b5061034a6103bc366004614ec6565b610e7c565b3480156103cd57600080fd5b5061034a610fc3565b3480156103e257600080fd5b50475b604051908152602001610378565b3480156103ff57600080fd5b5061036c61040e3660046149ea565b61113c565b34801561041f57600080fd5b506103e560015481565b34801561043557600080fd5b5061036c610444366004614f0e565b6112e6565b34801561045557600080fd5b5061045f61d01181565b6040516001600160a01b039091168152602001610378565b34801561048357600080fd5b5061036c610492366004614e26565b61153d565b3480156104a357600080fd5b506103e56104b23660046149ea565b6116c2565b3480156104c357600080fd5b5061036c6104d236600461500c565b61173f565b3480156104e357600080fd5b506103e56104f23660046149ea565b6119d9565b34801561050357600080fd5b5061034a610512366004614bd8565b611a56565b34801561052357600080fd5b506103e569d3c21bcecceda100000081565b34801561054157600080fd5b5060025461045f906001600160a01b031681565b34801561056157600080fd5b5061034a610570366004614aae565b611bdb565b34801561058157600080fd5b5061034a610590366004614e26565b611d64565b3480156105a157600080fd5b5061036c611eac565b3480156105b657600080fd5b5061036c6105c5366004614b7d565b61204d565b3480156105d657600080fd5b506103e56105e5366004614a24565b61225b565b3480156105f657600080fd5b5061034a610605366004614aae565b6122e9565b34801561061657600080fd5b5061034a610625366004614f0e565b612440565b34801561063657600080fd5b5061034a612589565b34801561064b57600080fd5b5061034a61065a366004614bd8565b6126e8565b61034a612835565b34801561067357600080fd5b5061045f61d01281565b34801561068957600080fd5b5061034a610698366004614e26565b612907565b3480156106a957600080fd5b5061036c612a4f565b3480156106be57600080fd5b5061034a6106cd366004614f4f565b612bb3565b3480156106de57600080fd5b5061034a6106ed366004614ada565b612d44565b3480156106fe57600080fd5b5061034a61070d366004614bd8565b612ee6565b34801561071e57600080fd5b5061036c61072d366004614b7d565b613033565b34801561073e57600080fd5b5061034a61074d366004614aae565b613241565b34801561075e57600080fd5b5061034a61076d3660046149ea565b613398565b34801561077e57600080fd5b5061034a61348a565b34801561079357600080fd5b5061034a6107a23660046150ef565b6135e9565b3480156107b357600080fd5b506103e56107c23660046149ea565b613738565b3480156107d357600080fd5b5061034a6107e2366004614bd8565b613769565b3480156107f357600080fd5b5061036c61080236600461504e565b6138b6565b34801561081357600080fd5b5061036c610822366004614a24565b613ab0565b34801561083357600080fd5b5061034a610842366004614ec6565b613c5a565b34801561085357600080fd5b5061045f61d01081565b34801561086957600080fd5b5061045f61d01381565b34801561087f57600080fd5b5061036c61088e366004614e26565b613da1565b34801561089f57600080fd5b5061036c6108ae366004614a5d565b613fac565b3480156108bf57600080fd5b5061034a61416e565b3480156108d457600080fd5b5061036c6108e3366004614e3f565b6142cd565b3480156108f457600080fd5b5061034a610903366004614c95565b614480565b34801561091457600080fd5b5061036c61461d565b34801561092957600080fd5b5061093d6109383660046149ea565b61466e565b6040516103789291906152b3565b34801561095757600080fd5b5061034a610966366004614aae565b6146f9565b60025460405163da3804cb60e01b815230600482015233916001600160a01b03169063da3804cb9060240160206040518083038186803b1580156109ae57600080fd5b505afa1580156109c2573d6000803e3d6000fd5b505050506040513d601f19601f820116820180604052508101906109e69190614a07565b6001600160a01b03161480610a715750600254604051630935e01b60e21b81523360048201526001600160a01b03909116906324d7806c9060240160206040518083038186803b158015610a3957600080fd5b505afa158015610a4d573d6000803e3d6000fd5b505050506040513d601f19601f82011682018060405250810190610a719190614e09565b610a965760405162461bcd60e51b8152600401610a8d906153a3565b60405180910390fd5b60405162c2d11960e11b81526004810182905261d01090630185a232906024015b600060405180830381600087803b158015610ad157600080fd5b505af1158015610ae5573d6000803e3d6000fd5b5050505050565b60025460405163da3804cb60e01b815230600482015260009133916001600160a01b039091169063da3804cb9060240160206040518083038186803b158015610b3457600080fd5b505afa158015610b48573d6000803e3d6000fd5b505050506040513d601f19601f82011682018060405250810190610b6c9190614a07565b6001600160a01b03161480610bf75750600254604051630935e01b60e21b81523360048201526001600160a01b03909116906324d7806c9060240160206040518083038186803b158015610bbf57600080fd5b505afa158015610bd3573d6000803e3d6000fd5b505050506040513d601f19601f82011682018060405250810190610bf79190614e09565b610c135760405162461bcd60e51b8152600401610a8d906153a3565b604051632c06ba3d60e11b81526001600160a01b0380871660048301526024820186905280851660448301528316606482015261d01390819063580d747a90608401602060405180830381600087803b158015610c6f57600080fd5b505af1158015610c83573d6000803e3d6000fd5b505050506040513d601f19601f82011682018060405250810190610ca79190614e09565b610ce55760405162461bcd60e51b815260206004820152600f60248201526e2330b4b632b2103a37903b37ba32b960891b6044820152606401610a8d565b50600195945050505050565b60025460405163da3804cb60e01b815230600482015233916001600160a01b03169063da3804cb9060240160206040518083038186803b158015610d3457600080fd5b505afa158015610d48573d6000803e3d6000fd5b505050506040513d601f19601f82011682018060405250810190610d6c9190614a07565b6001600160a01b03161480610df75750600254604051630935e01b60e21b81523360048201526001600160a01b03909116906324d7806c9060240160206040518083038186803b158015610dbf57600080fd5b505afa158015610dd3573d6000803e3d6000fd5b505050506040513d601f19601f82011682018060405250810190610df79190614e09565b610e135760405162461bcd60e51b8152600401610a8d906153a3565b6040516307d3a86960e11b815261d01090630fa750d290610e42908990899089908990899089906004016151e6565b600060405180830381600087803b158015610e5c57600080fd5b505af1158015610e70573d6000803e3d6000fd5b50505050505050505050565b60025460405163da3804cb60e01b815230600482015233916001600160a01b03169063da3804cb9060240160206040518083038186803b158015610ebf57600080fd5b505afa158015610ed3573d6000803e3d6000fd5b505050506040513d601f19601f82011682018060405250810190610ef79190614a07565b6001600160a01b03161480610f825750600254604051630935e01b60e21b81523360048201526001600160a01b03909116906324d7806c9060240160206040518083038186803b158015610f4a57600080fd5b505afa158015610f5e573d6000803e3d6000fd5b505050506040513d601f19601f82011682018060405250810190610f829190614e09565b610f9e5760405162461bcd60e51b8152600401610a8d906153a3565b604051630fe7abab60e01b815261d01090630fe7abab90610ab7908490600401615321565b60025460405163da3804cb60e01b815230600482015233916001600160a01b03169063da3804cb9060240160206040518083038186803b15801561100657600080fd5b505afa15801561101a573d6000803e3d6000fd5b505050506040513d601f19601f8201168201806040525081019061103e9190614a07565b6001600160a01b031614806110c95750600254604051630935e01b60e21b81523360048201526001600160a01b03909116906324d7806c9060240160206040518083038186803b15801561109157600080fd5b505afa1580156110a5573d6000803e3d6000fd5b505050506040513d601f19601f820116820180604052508101906110c99190614e09565b6110e55760405162461bcd60e51b8152600401610a8d906153a3565b61d0106001600160a01b03166310c504b56040518163ffffffff1660e01b8152600401600060405180830381600087803b15801561112257600080fd5b505af1158015611136573d6000803e3d6000fd5b50505050565b60025460405163da3804cb60e01b815230600482015260009133916001600160a01b039091169063da3804cb9060240160206040518083038186803b15801561118457600080fd5b505afa158015611198573d6000803e3d6000fd5b505050506040513d601f19601f820116820180604052508101906111bc9190614a07565b6001600160a01b031614806112475750600254604051630935e01b60e21b81523360048201526001600160a01b03909116906324d7806c9060240160206040518083038186803b15801561120f57600080fd5b505afa158015611223573d6000803e3d6000fd5b505050506040513d601f19601f820116820180604052508101906112479190614e09565b6112635760405162461bcd60e51b8152600401610a8d906153a3565b604051630716a76760e21b81526001600160a01b038316600482015261d01390631c5a9d9c90602401602060405180830381600087803b1580156112a657600080fd5b505af11580156112ba573d6000803e3d6000fd5b505050506040513d601f19601f820116820180604052508101906112de9190614e09565b90505b919050565b60025460405163da3804cb60e01b815230600482015260009133916001600160a01b039091169063da3804cb9060240160206040518083038186803b15801561132e57600080fd5b505afa158015611342573d6000803e3d6000fd5b505050506040513d601f19601f820116820180604052508101906113669190614a07565b6001600160a01b031614806113f15750600254604051630935e01b60e21b81523360048201526001600160a01b03909116906324d7806c9060240160206040518083038186803b1580156113b957600080fd5b505afa1580156113cd573d6000803e3d6000fd5b505050506040513d601f19601f820116820180604052508101906113f19190614e09565b61140d5760405162461bcd60e51b8152600401610a8d906153a3565b600061d0109050806001600160a01b0316639dca362f6040518163ffffffff1660e01b8152600401602060405180830381600087803b15801561144f57600080fd5b505af1158015611463573d6000803e3d6000fd5b505050506040513d601f19601f820116820180604052508101906114879190614e09565b6114d35760405162461bcd60e51b815260206004820152601860248201527f4661696c656420746f20637265617465206163636f756e7400000000000000006044820152606401610a8d565b60405163c47f002760e01b81526001600160a01b0382169063c47f0027906115019087908790600401615334565b600060405180830381600087803b15801561151b57600080fd5b505af115801561152f573d6000803e3d6000fd5b506001979650505050505050565b60025460405163da3804cb60e01b815230600482015260009133916001600160a01b039091169063da3804cb9060240160206040518083038186803b15801561158557600080fd5b505afa158015611599573d6000803e3d6000fd5b505050506040513d601f19601f820116820180604052508101906115bd9190614a07565b6001600160a01b031614806116485750600254604051630935e01b60e21b81523360048201526001600160a01b03909116906324d7806c9060240160206040518083038186803b15801561161057600080fd5b505afa158015611624573d6000803e3d6000fd5b505050506040513d601f19601f820116820180604052508101906116489190614e09565b6116645760405162461bcd60e51b8152600401610a8d906153a3565b604051632e1a7d4d60e01b81526004810183905261d011908190632e1a7d4d90602401600060405180830381600087803b1580156116a157600080fd5b505af11580156116b5573d6000803e3d6000fd5b5060019695505050505050565b6040516330ec70f560e01b81526001600160a01b038216600482015260009061d011906330ec70f5906024015b60206040518083038186803b15801561170757600080fd5b505afa15801561171b573d6000803e3d6000fd5b505050506040513d601f19601f820116820180604052508101906112de9190614ff3565b6000611749614850565b6000821561184b57600254604051630935e01b60e21b81523360048201526001600160a01b03909116906324d7806c9060240160206040518083038186803b15801561179457600080fd5b505afa1580156117a8573d6000803e3d6000fd5b505050506040513d601f19601f820116820180604052508101906117cc9190614e09565b6117e85760405162461bcd60e51b8152600401610a8d906153a3565b60015447101580156117fc57506000600154115b61183c5760405162461bcd60e51b81526020600482015260116024820152700c4c2d8c2dcc6ca40eadccadcdeeadcced607b1b6044820152606401610a8d565b5060018054600090915561198c565b60025460405163da3804cb60e01b815230600482015233916001600160a01b03169063da3804cb9060240160206040518083038186803b15801561188e57600080fd5b505afa1580156118a2573d6000803e3d6000fd5b505050506040513d601f19601f820116820180604052508101906118c69190614a07565b6001600160a01b0316146118ec5760405162461bcd60e51b8152600401610a8d906153a3565b844710156119305760405162461bcd60e51b81526020600482015260116024820152700c4c2d8c2dcc6ca40eadccadcdeeadcced607b1b6044820152606401610a8d565b60015461193d90866154b1565b611946306116c2565b61195090476154b1565b10156119895760405162461bcd60e51b8152602060048201526008602482015267746f6f206d616e7960c01b6044820152606401610a8d565b50835b6040516001600160a01b0385169082156108fc029083906000818181858888f193505050501580156119c2573d6000803e3d6000fd5b5060019150506119d26001600055565b9392505050565b60405162fc666d60e61b81526001600160a01b038216600482015260009061d011908190633f199b409060240160206040518083038186803b158015611a1e57600080fd5b505afa158015611a32573d6000803e3d6000fd5b505050506040513d601f19601f820116820180604052508101906119d29190614ff3565b60025460405163da3804cb60e01b815230600482015233916001600160a01b03169063da3804cb9060240160206040518083038186803b158015611a9957600080fd5b505afa158015611aad573d6000803e3d6000fd5b505050506040513d601f19601f82011682018060405250810190611ad19190614a07565b6001600160a01b03161480611b5c5750600254604051630935e01b60e21b81523360048201526001600160a01b03909116906324d7806c9060240160206040518083038186803b158015611b2457600080fd5b505afa158015611b38573d6000803e3d6000fd5b505050506040513d601f19601f82011682018060405250810190611b5c9190614e09565b611b785760405162461bcd60e51b8152600401610a8d906153a3565b604051634282ee6d60e01b815261d01090634282ee6d90611ba39087908790879087906004016151bd565b600060405180830381600087803b158015611bbd57600080fd5b505af1158015611bd1573d6000803e3d6000fd5b5050505050505050565b60025460405163da3804cb60e01b815230600482015233916001600160a01b03169063da3804cb9060240160206040518083038186803b158015611c1e57600080fd5b505afa158015611c32573d6000803e3d6000fd5b505050506040513d601f19601f82011682018060405250810190611c569190614a07565b6001600160a01b03161480611ce15750600254604051630935e01b60e21b81523360048201526001600160a01b03909116906324d7806c9060240160206040518083038186803b158015611ca957600080fd5b505afa158015611cbd573d6000803e3d6000fd5b505050506040513d601f19601f82011682018060405250810190611ce19190614e09565b611cfd5760405162461bcd60e51b8152600401610a8d906153a3565b604051630b1703d560e31b81526001600160a01b03831660048201526024810182905261d010906358b81ea8906044015b600060405180830381600087803b158015611d4857600080fd5b505af1158015611d5c573d6000803e3d6000fd5b505050505050565b60025460405163da3804cb60e01b815230600482015233916001600160a01b03169063da3804cb9060240160206040518083038186803b158015611da757600080fd5b505afa158015611dbb573d6000803e3d6000fd5b505050506040513d601f19601f82011682018060405250810190611ddf9190614a07565b6001600160a01b03161480611e6a5750600254604051630935e01b60e21b81523360048201526001600160a01b03909116906324d7806c9060240160206040518083038186803b158015611e3257600080fd5b505afa158015611e46573d6000803e3d6000fd5b505050506040513d601f19601f82011682018060405250810190611e6a9190614e09565b611e865760405162461bcd60e51b8152600401610a8d906153a3565b604051636198e33960e01b81526004810182905261d01190636198e33990602401610ab7565b60025460405163da3804cb60e01b815230600482015260009133916001600160a01b039091169063da3804cb9060240160206040518083038186803b158015611ef457600080fd5b505afa158015611f08573d6000803e3d6000fd5b505050506040513d601f19601f82011682018060405250810190611f2c9190614a07565b6001600160a01b03161480611fb75750600254604051630935e01b60e21b81523360048201526001600160a01b03909116906324d7806c9060240160206040518083038186803b158015611f7f57600080fd5b505afa158015611f93573d6000803e3d6000fd5b505050506040513d601f19601f82011682018060405250810190611fb79190614e09565b611fd35760405162461bcd60e51b8152600401610a8d906153a3565b61d0126001600160a01b0316636a911ccf6040518163ffffffff1660e01b8152600401602060405180830381600087803b15801561201057600080fd5b505af1158015612024573d6000803e3d6000fd5b505050506040513d601f19601f820116820180604052508101906120489190614e09565b905090565b60025460405163da3804cb60e01b815230600482015260009133916001600160a01b039091169063da3804cb9060240160206040518083038186803b15801561209557600080fd5b505afa1580156120a9573d6000803e3d6000fd5b505050506040513d601f19601f820116820180604052508101906120cd9190614a07565b6001600160a01b031614806121585750600254604051630935e01b60e21b81523360048201526001600160a01b03909116906324d7806c9060240160206040518083038186803b15801561212057600080fd5b505afa158015612134573d6000803e3d6000fd5b505050506040513d601f19601f820116820180604052508101906121589190614e09565b6121745760405162461bcd60e51b8152600401610a8d906153a3565b604051636e19847560e01b81526001600160a01b038088166004830152602482018790528086166044830152841660648201526084810183905261d013908190636e1984759060a401602060405180830381600087803b1580156121d757600080fd5b505af11580156121eb573d6000803e3d6000fd5b505050506040513d601f19601f8201168201806040525081019061220f9190614e09565b6116b55760405162461bcd60e51b815260206004820152601760248201527f4661696c656420746f207265766f6b65206163746976650000000000000000006044820152606401610a8d565b604051630e2c9dd160e31b81526001600160a01b0380841660048301528216602482015260009061d012908190637164ee889060440160206040518083038186803b1580156122a957600080fd5b505afa1580156122bd573d6000803e3d6000fd5b505050506040513d601f19601f820116820180604052508101906122e19190614ff3565b949350505050565b60025460405163da3804cb60e01b815230600482015233916001600160a01b03169063da3804cb9060240160206040518083038186803b15801561232c57600080fd5b505afa158015612340573d6000803e3d6000fd5b505050506040513d601f19601f820116820180604052508101906123649190614a07565b6001600160a01b031614806123ef5750600254604051630935e01b60e21b81523360048201526001600160a01b03909116906324d7806c9060240160206040518083038186803b1580156123b757600080fd5b505afa1580156123cb573d6000803e3d6000fd5b505050506040513d601f19601f820116820180604052508101906123ef9190614e09565b61240b5760405162461bcd60e51b8152600401610a8d906153a3565b604051631c9f41e760e21b81526001600160a01b03831660048201526024810182905261d0109063727d079c90604401611d2e565b60025460405163da3804cb60e01b815230600482015233916001600160a01b03169063da3804cb9060240160206040518083038186803b15801561248357600080fd5b505afa158015612497573d6000803e3d6000fd5b505050506040513d601f19601f820116820180604052508101906124bb9190614a07565b6001600160a01b031614806125465750600254604051630935e01b60e21b81523360048201526001600160a01b03909116906324d7806c9060240160206040518083038186803b15801561250e57600080fd5b505afa158015612522573d6000803e3d6000fd5b505050506040513d601f19601f820116820180604052508101906125469190614e09565b6125625760405162461bcd60e51b8152600401610a8d906153a3565b60405163747daec560e01b815261d0109063747daec590611d2e9085908590600401615334565b60025460405163da3804cb60e01b815230600482015233916001600160a01b03169063da3804cb9060240160206040518083038186803b1580156125cc57600080fd5b505afa1580156125e0573d6000803e3d6000fd5b505050506040513d601f19601f820116820180604052508101906126049190614a07565b6001600160a01b0316148061268f5750600254604051630935e01b60e21b81523360048201526001600160a01b03909116906324d7806c9060240160206040518083038186803b15801561265757600080fd5b505afa15801561266b573d6000803e3d6000fd5b505050506040513d601f19601f8201168201806040525081019061268f9190614e09565b6126ab5760405162461bcd60e51b8152600401610a8d906153a3565b61d0106001600160a01b031663760fbbb26040518163ffffffff1660e01b8152600401600060405180830381600087803b15801561112257600080fd5b60025460405163da3804cb60e01b815230600482015233916001600160a01b03169063da3804cb9060240160206040518083038186803b15801561272b57600080fd5b505afa15801561273f573d6000803e3d6000fd5b505050506040513d601f19601f820116820180604052508101906127639190614a07565b6001600160a01b031614806127ee5750600254604051630935e01b60e21b81523360048201526001600160a01b03909116906324d7806c9060240160206040518083038186803b1580156127b657600080fd5b505afa1580156127ca573d6000803e3d6000fd5b505050506040513d601f19601f820116820180604052508101906127ee9190614e09565b61280a5760405162461bcd60e51b8152600401610a8d906153a3565b604051631dabe81360e21b815261d010906376afa04c90611ba39087908790879087906004016151bd565b600254604051630935e01b60e21b81523360048201526001600160a01b03909116906324d7806c9060240160206040518083038186803b15801561287857600080fd5b505afa15801561288c573d6000803e3d6000fd5b505050506040513d601f19601f820116820180604052508101906128b09190614e09565b6128ee5760405162461bcd60e51b815260206004820152600f60248201526e6d616e61676572203a3a2064656e7960881b6044820152606401610a8d565b346001600082825461290091906154b1565b9091555050565b60025460405163da3804cb60e01b815230600482015233916001600160a01b03169063da3804cb9060240160206040518083038186803b15801561294a57600080fd5b505afa15801561295e573d6000803e3d6000fd5b505050506040513d601f19601f820116820180604052508101906129829190614a07565b6001600160a01b03161480612a0d5750600254604051630935e01b60e21b81523360048201526001600160a01b03909116906324d7806c9060240160206040518083038186803b1580156129d557600080fd5b505afa1580156129e9573d6000803e3d6000fd5b505050506040513d601f19601f82011682018060405250810190612a0d9190614e09565b612a295760405162461bcd60e51b8152600401610a8d906153a3565b60405163436c0d2d60e11b81526004810182905261d012906386d81a5a90602401610ab7565b60025460405163da3804cb60e01b815230600482015260009133916001600160a01b039091169063da3804cb9060240160206040518083038186803b158015612a9757600080fd5b505afa158015612aab573d6000803e3d6000fd5b505050506040513d601f19601f82011682018060405250810190612acf9190614a07565b6001600160a01b03161480612b5a5750600254604051630935e01b60e21b81523360048201526001600160a01b03909116906324d7806c9060240160206040518083038186803b158015612b2257600080fd5b505afa158015612b36573d6000803e3d6000fd5b505050506040513d601f19601f82011682018060405250810190612b5a9190614e09565b612b765760405162461bcd60e51b8152600401610a8d906153a3565b61d0126001600160a01b0316638f0176aa6040518163ffffffff1660e01b8152600401602060405180830381600087803b15801561201057600080fd5b60025460405163da3804cb60e01b815230600482015233916001600160a01b03169063da3804cb9060240160206040518083038186803b158015612bf657600080fd5b505afa158015612c0a573d6000803e3d6000fd5b505050506040513d601f19601f82011682018060405250810190612c2e9190614a07565b6001600160a01b03161480612cb95750600254604051630935e01b60e21b81523360048201526001600160a01b03909116906324d7806c9060240160206040518083038186803b158015612c8157600080fd5b505afa158015612c95573d6000803e3d6000fd5b505050506040513d601f19601f82011682018060405250810190612cb99190614e09565b612cd55760405162461bcd60e51b8152600401610a8d906153a3565b6040516390b12b4760e01b815261d010906390b12b4790612d08908b908b908b908b908b908b908b908b90600401615348565b600060405180830381600087803b158015612d2257600080fd5b505af1158015612d36573d6000803e3d6000fd5b505050505050505050505050565b60025460405163da3804cb60e01b815230600482015233916001600160a01b03169063da3804cb9060240160206040518083038186803b158015612d8757600080fd5b505afa158015612d9b573d6000803e3d6000fd5b505050506040513d601f19601f82011682018060405250810190612dbf9190614a07565b6001600160a01b03161480612e4a5750600254604051630935e01b60e21b81523360048201526001600160a01b03909116906324d7806c9060240160206040518083038186803b158015612e1257600080fd5b505afa158015612e26573d6000803e3d6000fd5b505050506040513d601f19601f82011682018060405250810190612e4a9190614e09565b612e665760405162461bcd60e51b8152600401610a8d906153a3565b6040516392f90fbf60e01b81526001600160a01b03861660048201526024810185905260ff84166044820152606481018390526084810182905261d010906392f90fbf9060a401600060405180830381600087803b158015612ec757600080fd5b505af1158015612edb573d6000803e3d6000fd5b505050505050505050565b60025460405163da3804cb60e01b815230600482015233916001600160a01b03169063da3804cb9060240160206040518083038186803b158015612f2957600080fd5b505afa158015612f3d573d6000803e3d6000fd5b505050506040513d601f19601f82011682018060405250810190612f619190614a07565b6001600160a01b03161480612fec5750600254604051630935e01b60e21b81523360048201526001600160a01b03909116906324d7806c9060240160206040518083038186803b158015612fb457600080fd5b505afa158015612fc8573d6000803e3d6000fd5b505050506040513d601f19601f82011682018060405250810190612fec9190614e09565b6130085760405162461bcd60e51b8152600401610a8d906153a3565b604051639cafb2a160e01b815261d01090639cafb2a190611ba39087908790879087906004016151bd565b60025460405163da3804cb60e01b815230600482015260009133916001600160a01b039091169063da3804cb9060240160206040518083038186803b15801561307b57600080fd5b505afa15801561308f573d6000803e3d6000fd5b505050506040513d601f19601f820116820180604052508101906130b39190614a07565b6001600160a01b0316148061313e5750600254604051630935e01b60e21b81523360048201526001600160a01b03909116906324d7806c9060240160206040518083038186803b15801561310657600080fd5b505afa15801561311a573d6000803e3d6000fd5b505050506040513d601f19601f8201168201806040525081019061313e9190614e09565b61315a5760405162461bcd60e51b8152600401610a8d906153a3565b604051636e19847560e01b81526001600160a01b038088166004830152602482018790528086166044830152841660648201526084810183905261d013908190636e1984759060a401602060405180830381600087803b1580156131bd57600080fd5b505af11580156131d1573d6000803e3d6000fd5b505050506040513d601f19601f820116820180604052508101906131f59190614e09565b6116b55760405162461bcd60e51b815260206004820152601860248201527f4661696c656420746f207265766f6b652050656e64696e6700000000000000006044820152606401610a8d565b60025460405163da3804cb60e01b815230600482015233916001600160a01b03169063da3804cb9060240160206040518083038186803b15801561328457600080fd5b505afa158015613298573d6000803e3d6000fd5b505050506040513d601f19601f820116820180604052508101906132bc9190614a07565b6001600160a01b031614806133475750600254604051630935e01b60e21b81523360048201526001600160a01b03909116906324d7806c9060240160206040518083038186803b15801561330f57600080fd5b505afa158015613323573d6000803e3d6000fd5b505050506040513d601f19601f820116820180604052508101906133479190614e09565b6133635760405162461bcd60e51b8152600401610a8d906153a3565b604051634fb414bb60e11b81526001600160a01b03831660048201526024810182905261d01090639f68297690604401611d2e565b600254604051630935e01b60e21b81523360048201526001600160a01b03909116906324d7806c9060240160206040518083038186803b1580156133db57600080fd5b505afa1580156133ef573d6000803e3d6000fd5b505050506040513d601f19601f820116820180604052508101906134139190614e09565b6134515760405162461bcd60e51b815260206004820152600f60248201526e6d616e61676572203a3a2064656e7960881b6044820152606401610a8d565b6040516001600160a01b038216904780156108fc02916000818181858888f19350505050158015613486573d6000803e3d6000fd5b5050565b60025460405163da3804cb60e01b815230600482015233916001600160a01b03169063da3804cb9060240160206040518083038186803b1580156134cd57600080fd5b505afa1580156134e1573d6000803e3d6000fd5b505050506040513d601f19601f820116820180604052508101906135059190614a07565b6001600160a01b031614806135905750600254604051630935e01b60e21b81523360048201526001600160a01b03909116906324d7806c9060240160206040518083038186803b15801561355857600080fd5b505afa15801561356c573d6000803e3d6000fd5b505050506040513d601f19601f820116820180604052508101906135909190614e09565b6135ac5760405162461bcd60e51b8152600401610a8d906153a3565b61d0106001600160a01b031663a5ec94f96040518163ffffffff1660e01b8152600401600060405180830381600087803b15801561112257600080fd5b60025460405163da3804cb60e01b815230600482015233916001600160a01b03169063da3804cb9060240160206040518083038186803b15801561362c57600080fd5b505afa158015613640573d6000803e3d6000fd5b505050506040513d601f19601f820116820180604052508101906136649190614a07565b6001600160a01b031614806136ef5750600254604051630935e01b60e21b81523360048201526001600160a01b03909116906324d7806c9060240160206040518083038186803b1580156136b757600080fd5b505afa1580156136cb573d6000803e3d6000fd5b505050506040513d601f19601f820116820180604052508101906136ef9190614e09565b61370b5760405162461bcd60e51b8152600401610a8d906153a3565b60405163b2fb30cb60e01b8152600481018390526024810182905261d0119063b2fb30cb90604401611d2e565b60405163b6e1e49d60e01b81526001600160a01b038216600482015260009061d0119063b6e1e49d906024016116ef565b60025460405163da3804cb60e01b815230600482015233916001600160a01b03169063da3804cb9060240160206040518083038186803b1580156137ac57600080fd5b505afa1580156137c0573d6000803e3d6000fd5b505050506040513d601f19601f820116820180604052508101906137e49190614a07565b6001600160a01b0316148061386f5750600254604051630935e01b60e21b81523360048201526001600160a01b03909116906324d7806c9060240160206040518083038186803b15801561383757600080fd5b505afa15801561384b573d6000803e3d6000fd5b505050506040513d601f19601f8201168201806040525081019061386f9190614e09565b61388b5760405162461bcd60e51b8152600401610a8d906153a3565b60405163baf7ef0f60e01b815261d0109063baf7ef0f90611ba39087908790879087906004016151bd565b60025460405163da3804cb60e01b815230600482015260009133916001600160a01b039091169063da3804cb9060240160206040518083038186803b1580156138fe57600080fd5b505afa158015613912573d6000803e3d6000fd5b505050506040513d601f19601f820116820180604052508101906139369190614a07565b6001600160a01b031614806139c15750600254604051630935e01b60e21b81523360048201526001600160a01b03909116906324d7806c9060240160206040518083038186803b15801561398957600080fd5b505afa15801561399d573d6000803e3d6000fd5b505050506040513d601f19601f820116820180604052508101906139c19190614e09565b6139dd5760405162461bcd60e51b8152600401610a8d906153a3565b60405163bf18670360e01b815261d01290600090829063bf18670390613a0f908b908b908b908b908b906004016153c1565b602060405180830381600087803b158015613a2957600080fd5b505af1158015613a3d573d6000803e3d6000fd5b505050506040513d601f19601f82011682018060405250810190613a619190614e09565b90508061152f5760405162461bcd60e51b815260206004820152601c60248201527f4661696c656420746f2072656769737465722076616c696461746f72000000006044820152606401610a8d565b60025460405163da3804cb60e01b815230600482015260009133916001600160a01b039091169063da3804cb9060240160206040518083038186803b158015613af857600080fd5b505afa158015613b0c573d6000803e3d6000fd5b505050506040513d601f19601f82011682018060405250810190613b309190614a07565b6001600160a01b03161480613bbb5750600254604051630935e01b60e21b81523360048201526001600160a01b03909116906324d7806c9060240160206040518083038186803b158015613b8357600080fd5b505afa158015613b97573d6000803e3d6000fd5b505050506040513d601f19601f82011682018060405250810190613bbb9190614e09565b613bd75760405162461bcd60e51b8152600401610a8d906153a3565b6040516330511c3160e21b81526001600160a01b0380851660048301528316602482015261d0139063c14470c490604401602060405180830381600087803b158015613c2257600080fd5b505af1158015613c36573d6000803e3d6000fd5b505050506040513d601f19601f820116820180604052508101906119d29190614e09565b60025460405163da3804cb60e01b815230600482015233916001600160a01b03169063da3804cb9060240160206040518083038186803b158015613c9d57600080fd5b505afa158015613cb1573d6000803e3d6000fd5b505050506040513d601f19601f82011682018060405250810190613cd59190614a07565b6001600160a01b03161480613d605750600254604051630935e01b60e21b81523360048201526001600160a01b03909116906324d7806c9060240160206040518083038186803b158015613d2857600080fd5b505afa158015613d3c573d6000803e3d6000fd5b505050506040513d601f19601f82011682018060405250810190613d609190614e09565b613d7c5760405162461bcd60e51b8152600401610a8d906153a3565b60405163c47f002760e01b815261d0109063c47f002790610ab7908490600401615321565b60025460405163da3804cb60e01b815230600482015260009133916001600160a01b039091169063da3804cb9060240160206040518083038186803b158015613de957600080fd5b505afa158015613dfd573d6000803e3d6000fd5b505050506040513d601f19601f82011682018060405250810190613e219190614a07565b6001600160a01b03161480613eac5750600254604051630935e01b60e21b81523360048201526001600160a01b03909116906324d7806c9060240160206040518083038186803b158015613e7457600080fd5b505afa158015613e88573d6000803e3d6000fd5b505050506040513d601f19601f82011682018060405250810190613eac9190614e09565b613ec85760405162461bcd60e51b8152600401610a8d906153a3565b604051602060248201526000604482018190529061d01190849060640160408051601f198184030181529181526020820180516001600160e01b0316637c1e845d60e11b17905251613f1a91906151a1565b60006040518083038185875af1925050503d8060008114613f57576040519150601f19603f3d011682016040523d82523d6000602084013e613f5c565b606091505b5050905080613fa35760405162461bcd60e51b815260206004820152601360248201527211985a5b1959081d1bc81b1bd8dac819dbdb19606a1b6044820152606401610a8d565b50600192915050565b60025460405163da3804cb60e01b815230600482015260009133916001600160a01b039091169063da3804cb9060240160206040518083038186803b158015613ff457600080fd5b505afa158015614008573d6000803e3d6000fd5b505050506040513d601f19601f8201168201806040525081019061402c9190614a07565b6001600160a01b031614806140b75750600254604051630935e01b60e21b81523360048201526001600160a01b03909116906324d7806c9060240160206040518083038186803b15801561407f57600080fd5b505afa158015614093573d6000803e3d6000fd5b505050506040513d601f19601f820116820180604052508101906140b79190614e09565b6140d35760405162461bcd60e51b8152600401610a8d906153a3565b60405163705155a960e11b81526001600160a01b0380871660048301528086166024830152841660448201526064810183905261d0139063e0a2ab5290608401602060405180830381600087803b15801561412d57600080fd5b505af1158015614141573d6000803e3d6000fd5b505050506040513d601f19601f820116820180604052508101906141659190614e09565b95945050505050565b60025460405163da3804cb60e01b815230600482015233916001600160a01b03169063da3804cb9060240160206040518083038186803b1580156141b157600080fd5b505afa1580156141c5573d6000803e3d6000fd5b505050506040513d601f19601f820116820180604052508101906141e99190614a07565b6001600160a01b031614806142745750600254604051630935e01b60e21b81523360048201526001600160a01b03909116906324d7806c9060240160206040518083038186803b15801561423c57600080fd5b505afa158015614250573d6000803e3d6000fd5b505050506040513d601f19601f820116820180604052508101906142749190614e09565b6142905760405162461bcd60e51b8152600401610a8d906153a3565b61d0126001600160a01b031663e7f037666040518163ffffffff1660e01b8152600401600060405180830381600087803b15801561112257600080fd5b60025460405163da3804cb60e01b815230600482015260009133916001600160a01b039091169063da3804cb9060240160206040518083038186803b15801561431557600080fd5b505afa158015614329573d6000803e3d6000fd5b505050506040513d601f19601f8201168201806040525081019061434d9190614a07565b6001600160a01b031614806143d85750600254604051630935e01b60e21b81523360048201526001600160a01b03909116906324d7806c9060240160206040518083038186803b1580156143a057600080fd5b505afa1580156143b4573d6000803e3d6000fd5b505050506040513d601f19601f820116820180604052508101906143d89190614e09565b6143f45760405162461bcd60e51b8152600401610a8d906153a3565b6040516375f411cb60e11b815261d0129063ebe8239690614423908a908a908a908a908a908a906004016152d8565b602060405180830381600087803b15801561443d57600080fd5b505af1158015614451573d6000803e3d6000fd5b505050506040513d601f19601f820116820180604052508101906144759190614e09565b979650505050505050565b60025460405163da3804cb60e01b815230600482015233916001600160a01b03169063da3804cb9060240160206040518083038186803b1580156144c357600080fd5b505afa1580156144d7573d6000803e3d6000fd5b505050506040513d601f19601f820116820180604052508101906144fb9190614a07565b6001600160a01b031614806145865750600254604051630935e01b60e21b81523360048201526001600160a01b03909116906324d7806c9060240160206040518083038186803b15801561454e57600080fd5b505afa158015614562573d6000803e3d6000fd5b505050506040513d601f19601f820116820180604052508101906145869190614e09565b6145a25760405162461bcd60e51b8152600401610a8d906153a3565b60405163ec20379360e01b815261d0109063ec203793906145dd908f908f908f908f908f908f908f908f908f908f908f908f90600401615229565b600060405180830381600087803b1580156145f757600080fd5b505af115801561460b573d6000803e3d6000fd5b50505050505050505050505050505050565b600061d0126001600160a01b031663f2918ef36040518163ffffffff1660e01b815260040160206040518083038186803b15801561465a57600080fd5b505afa158015612024573d6000803e3d6000fd5b604051630f340c0d60e41b81526001600160a01b0382166004820152606090819061d0119063f340c0d09060240160006040518083038186803b1580156146b457600080fd5b505afa1580156146c8573d6000803e3d6000fd5b505050506040513d6000823e601f3d908101601f191682016040526146f09190810190614da6565b91509150915091565b60025460405163da3804cb60e01b815230600482015233916001600160a01b03169063da3804cb9060240160206040518083038186803b15801561473c57600080fd5b505afa158015614750573d6000803e3d6000fd5b505050506040513d601f19601f820116820180604052508101906147749190614a07565b6001600160a01b031614806147ff5750600254604051630935e01b60e21b81523360048201526001600160a01b03909116906324d7806c9060240160206040518083038186803b1580156147c757600080fd5b505afa1580156147db573d6000803e3d6000fd5b505050506040513d601f19601f820116820180604052508101906147ff9190614e09565b61481b5760405162461bcd60e51b8152600401610a8d906153a3565b60405163fbe3c37360e01b81526001600160a01b03831660048201526024810182905261d0109063fbe3c37390604401611d2e565b600260005414156148a35760405162461bcd60e51b815260206004820152601f60248201527f5265656e7472616e637947756172643a207265656e7472616e742063616c6c006044820152606401610a8d565b6002600055565b60006001600160401b038311156148c3576148c3615503565b6148d6601f8401601f1916602001615481565b90508281528383830111156148ea57600080fd5b828260208301376000602084830101529392505050565b80356112e181615519565b600082601f83011261491d57600080fd5b815160206001600160401b0382111561493857614938615503565b8160051b614947828201615481565b83815282810190868401838801850189101561496257600080fd5b600093505b85841015614985578051835260019390930192918401918401614967565b50979650505050505050565b60008083601f8401126149a357600080fd5b5081356001600160401b038111156149ba57600080fd5b6020830191508360208285010111156149d257600080fd5b9250929050565b803560ff811681146112e157600080fd5b6000602082840312156149fc57600080fd5b81356119d281615519565b600060208284031215614a1957600080fd5b81516119d281615519565b60008060408385031215614a3757600080fd5b8235614a4281615519565b91506020830135614a5281615519565b809150509250929050565b60008060008060808587031215614a7357600080fd5b8435614a7e81615519565b93506020850135614a8e81615519565b92506040850135614a9e81615519565b9396929550929360600135925050565b60008060408385031215614ac157600080fd5b8235614acc81615519565b946020939093013593505050565b600080600080600060a08688031215614af257600080fd5b8535614afd81615519565b945060208601359350614b12604087016149d9565b94979396509394606081013594506080013592915050565b60008060008060808587031215614b4057600080fd5b8435614b4b81615519565b9350602085013592506040850135614b6281615519565b91506060850135614b7281615519565b939692955090935050565b600080600080600060a08688031215614b9557600080fd5b8535614ba081615519565b9450602086013593506040860135614bb781615519565b92506060860135614bc781615519565b949793965091946080013592915050565b60008060008060808587031215614bee57600080fd5b8435614bf981615519565b9350614c07602086016149d9565b93969395505050506040820135916060013590565b60008060008060008060a08789031215614c3557600080fd5b8635614c4081615519565b9550614c4e602088016149d9565b9450604087013593506060870135925060808701356001600160401b03811115614c7757600080fd5b614c8389828a01614991565b979a9699509497509295939492505050565b6000806000806000806000806000806000806101008d8f031215614cb857600080fd5b614cc18d614901565b9b50614ccf60208e016149d9565b9a5060408d0135995060608d013598506001600160401b0360808e01351115614cf757600080fd5b614d078e60808f01358f01614991565b90985096506001600160401b0360a08e01351115614d2457600080fd5b614d348e60a08f01358f01614991565b90965094506001600160401b0360c08e01351115614d5157600080fd5b614d618e60c08f01358f01614991565b90945092506001600160401b0360e08e01351115614d7e57600080fd5b614d8e8e60e08f01358f01614991565b81935080925050509295989b509295989b509295989b565b60008060408385031215614db957600080fd5b82516001600160401b0380821115614dd057600080fd5b614ddc8683870161490c565b93506020850151915080821115614df257600080fd5b50614dff8582860161490c565b9150509250929050565b600060208284031215614e1b57600080fd5b81516119d281615531565b600060208284031215614e3857600080fd5b5035919050565b60008060008060008060608789031215614e5857600080fd5b86356001600160401b0380821115614e6f57600080fd5b614e7b8a838b01614991565b90985096506020890135915080821115614e9457600080fd5b614ea08a838b01614991565b90965094506040890135915080821115614eb957600080fd5b50614c8389828a01614991565b600060208284031215614ed857600080fd5b81356001600160401b03811115614eee57600080fd5b8201601f81018413614eff57600080fd5b6122e1848235602084016148aa565b60008060208385031215614f2157600080fd5b82356001600160401b03811115614f3757600080fd5b614f4385828601614991565b90969095509350505050565b60008060008060008060008060c0898b031215614f6b57600080fd5b88356001600160401b0380821115614f8257600080fd5b614f8e8c838d01614991565b909a50985060208b0135915080821115614fa757600080fd5b50614fb48b828c01614991565b9097509550506040890135614fc881615519565b9350614fd660608a016149d9565b92506080890135915060a089013590509295985092959890939650565b60006020828403121561500557600080fd5b5051919050565b60008060006060848603121561502157600080fd5b83359250602084013561503381615519565b9150604084013561504381615531565b809150509250925092565b60008060008060006080868803121561506657600080fd5b85359450602086013561507881615519565b9350604086013561508881615519565b925060608601356001600160401b03808211156150a457600080fd5b818801915088601f8301126150b857600080fd5b8135818111156150c757600080fd5b8960208260051b85010111156150dc57600080fd5b9699959850939650602001949392505050565b6000806040838503121561510257600080fd5b50508035926020909101359150565b600081518084526020808501945080840160005b8381101561514157815187529582019590820190600101615125565b509495945050505050565b81835281816020850137506000828201602090810191909152601f909101601f19169091010190565b6000815180845261518d8160208601602086016154d7565b601f01601f19169290920160200192915050565b600082516151b38184602087016154d7565b9190910192915050565b6001600160a01b0394909416845260ff9290921660208401526040830152606082015260800190565b60018060a01b038716815260ff8616602082015284604082015283606082015260a06080820152600061521d60a08301848661514c565b98975050505050505050565b600061010060018060a01b038f16835260ff8e1660208401528c60408401528b60608401528060808401526152618184018b8d61514c565b905082810360a084015261527681898b61514c565b905082810360c084015261528b81878961514c565b905082810360e08401526152a081858761514c565b9f9e505050505050505050505050505050565b6040815260006152c66040830185615111565b82810360208401526141658185615111565b6060815260006152ec60608301888a61514c565b82810360208401526152ff81878961514c565b9050828103604084015261531481858761514c565b9998505050505050505050565b6020815260006119d26020830184615175565b6020815260006122e160208301848661514c565b60c08152600061535c60c083018a8c61514c565b828103602084015261536f81898b61514c565b6001600160a01b03979097166040840152505060ff939093166060840152608083019190915260a090910152949350505050565b60208082526004908201526364656e7960e01b604082015260600190565b8581526001600160a01b038581166020808401919091529085166040830152608060608301819052820183905260009060a0600585901b840181019190840186845b8781101561547157868503609f190183528135368a9003601e1901811261542957600080fd5b890180356001600160401b0381111561544157600080fd5b8036038b131561545057600080fd5b61545d878288850161514c565b965050509183019190830190600101615403565b50929a9950505050505050505050565b604051601f8201601f191681016001600160401b03811182821017156154a9576154a9615503565b604052919050565b600082198211156154d257634e487b7160e01b600052601160045260246000fd5b500190565b60005b838110156154f25781810151838201526020016154da565b838111156111365750506000910152565b634e487b7160e01b600052604160045260246000fd5b6001600160a01b038116811461552e57600080fd5b50565b801515811461552e57600080fdfea2646970667358221220271cdd8324677531087f3ba1abf859a8fdf16632aef76ebf42d03372fc57201464736f6c63430008070033a2646970667358221220c4f1853f32c31cb1bc564da8eaee08becdaea9627db217d35811e695cf239d6964736f6c63430008070033",
  "devdoc": {
    "kind": "dev",
    "methods": {
      "owner()": {
        "details": "Returns the address of the current owner."
      },
      "renounceOwnership()": {
        "details": "Leaves the contract without owner. It will not be possible to call `onlyOwner` functions anymore. Can only be called by the current owner. NOTE: Renouncing ownership will leave the contract without an owner, thereby removing any functionality that is only available to the owner."
      },
      "transferOwnership(address)": {
        "details": "Transfers ownership of the contract to a new account (`newOwner`). Can only be called by the current owner."
      }
    },
    "version": 1
  },
  "userdoc": {
    "kind": "user",
    "methods": {},
    "version": 1
  },
  "storageLayout": {
    "storage": [
      {
        "astId": 7,
        "contract": "contracts/HelperManager.sol:HelperManager",
        "label": "_owner",
        "offset": 0,
        "slot": "0",
        "type": "t_address"
      },
      {
        "astId": 198,
        "contract": "contracts/HelperManager.sol:HelperManager",
        "label": "admins",
        "offset": 0,
        "slot": "1",
        "type": "t_mapping(t_address,t_bool)"
      },
      {
        "astId": 202,
        "contract": "contracts/HelperManager.sol:HelperManager",
        "label": "helperAdmin",
        "offset": 0,
        "slot": "2",
        "type": "t_mapping(t_address,t_address)"
      }
    ],
    "types": {
      "t_address": {
        "encoding": "inplace",
        "label": "address",
        "numberOfBytes": "20"
      },
      "t_bool": {
        "encoding": "inplace",
        "label": "bool",
        "numberOfBytes": "1"
      },
      "t_mapping(t_address,t_address)": {
        "encoding": "mapping",
        "key": "t_address",
        "label": "mapping(address => address)",
        "numberOfBytes": "32",
        "value": "t_address"
      },
      "t_mapping(t_address,t_bool)": {
        "encoding": "mapping",
        "key": "t_address",
        "label": "mapping(address => bool)",
        "numberOfBytes": "32",
        "value": "t_bool"
      }
    }
  }
}